:10000E0000A8C0003F065B4F666D7D077F6F00083E
:04001E0040017638EF
:100571000226AA550628A500000000000138010244
:0C058100390333012504012205012E0678
:10114800120003BF010F7D147C007FE87E03120CA0
:091158005D752C0122E4F52C2246
:0A11F600121189BF0103752D0122BB
:101161007D0A7C007FE87E03120C5D7F03120E89ED
:07117100BF0103E4F52D228C
:10083900121224E92406F9E43AFA1200F8AEF02576
:1008490030F530EE352FF52F121224E92406F9E49C
:100859003AFA1200F8FFAEF07C007D0A12008D8D85
:1008690024121224E92406F9E43AFA1200F8FFAE38
:10087900F07C007D0A12008D7C007D0A12008D8DAE
:1008890023121224E92406F9E43AFA1200F8FFAE19
:10089900F07C007D6412008D7C007D0A12008D8D34
:1008A90037121224E92406F9E43AFA1200F8D3942B
:1008B90064E5F09400400B753E0A753F0A853740A0
:1008C9008009753E0A753F0A75400A8523418524CA
:1008D900427B0A7D0AAF2D1210D3E52D600B7D32C4
:0A08E9007C007FE87E03120C5D2204
:100DF100AE2FAF307C007D0A12008D8E358F36E428
:100E0100F52FF530FC7D6412008D7C007D0A120007
:100E11008D8D29AE35AF367C007D0A12008D7C00A8
:100E21007D0A12008D8D2AAE35AF367C007D0A1207
:100E3100008D8D2B7B007A0079287D067C000210C5
:010E41008B25
:10099B0012112D7D07E4FF121209753E0A753F0AED
:1009AB0075400A75410A75420A7B0A7D0AAF2D1202
:1009BB0010D3E4FF1212381210B37F98120FD61215
:1009CB0010F31211107FB07E047D007C00120CD549
:1009DB007540007541007542267543007544027BD6
:1009EB00007A0079317D047C001210077BFF7A11AD
:1009FB0079617F07120BE07BFF7A0879397F02124E
:100A0B000BE07BFF7A0D79F17F03120BE07BFF7A12
:100A1B001179487F05120BE07BFF7A1179F67F067F
:0B0A2B00120BE012123E120F9880FB2D
:091200008B88898C88898F88890C
:10058D0052007A86860086860086860086860086DC
:09059D00860086860041006F090A
:03002B000212328C
:0612320053BCEFD20F32A5
:0202950015450D
:10029700200F0302043EC20F90006EE0B409004035
:1002A700030204209002B2F82828730202F902021E
:1002B700CD0202DF02030B0202CD0202DF0203229C
:1002C7000202CD0202DFAFBDEFFEADBE7C00E42D22
:1002D700FFEC3E900070803CAFBDEFFEADBE7C00F2
:1002E700E42DFFEC3E900072F0A3EFF0751A0102C7
:1002F7000426AFBDEFFEADBE7C00E42DFFEC3E90C3
:1003070000748010AFBDEFFEADBE7C00E42DFFECA6
:100317003E900076F0A3EFF0020426AFBDEFFEADEE
:10032700BE7C00E42DFFEC3E900078F0A3EFF09048
:100337000078E0FEA3E07807CEC313CE13D8F9A860
:1003470045F6C394065013A845E675F003A4247A2E
:10035700F582E43400F583E014F090006FE014F0C8
:1003670060030204267409F0A845E4F6A845E6FFF1
:10037700C394064003020426EF75F003A4247AF51C
:1003870082E43400F583E0C39480502AE6FF75F0D9
:1003970003A4247BF582E43400F583E0D394804002
:1003A70040EF75F003A4247CF582E43400F58374F0
:1003B70001F0F51B802BA845E6FF75F003A4247B0D
:1003C700F582E43400F583E0C394805014EF75F0B0
:1003D70003A4247CF582E43400F5837402F0751BD2
:1003E70001A845E6FF75F003A4247AF582E43400FA
:1003F700F583E0FEEF75F003A4247BF582E4340077
:10040700F583EEF0E675F003A4247AF582E4340070
:10041700F5837486F00602037390006E74FFF09004
:10042700006EE0D39407400374FFF090006EE00481
:07043700F090120093F5BCE8
:03043E000545224F
:0211A7001545EC
:0911A900A845A61BE4F51BE6FFB6
:0311B200054522CE
:0211B5001545DE
:0911B700A845A61AE4F51AE6FFAA
:0311C000054522C0
:100FD6008F9D75BC88439720D2AD90004574FFF075
:100FE600A37402F0A37495F0A374FFF0A37411F038
:100FF600A374A7F0A374FFF0A37411F0A374B5F063
:0110060022C7
:071224007B017A00797022C2
:100E8900C3EF64809480403BD3EF648094855033F2
:100E9900EFFD3395E0FC90007C75F003ED120283C1
:100EA900EC75F003A42583F583E0FE90007C75F0D2
:100EB90003ED120283EC75F003A42583F583E4F0B6
:050EC900AF06227F03CB
:010ECE002201
:0410630015451545D5
:10106700121212A845A60608A607A845E6FE08E636
:0F107700FF4E600BEF24FFFFEE34FFFE12121B43
:051086000545054522AF
:1010B30053B1EF43B210121244E4F5D975DA49D2B1
:1010C300DE90003F74FFF0A37410F0A37463F0226A
:080C5D008E3B8F3C8C3D8D3E67
:100C6500121212EF4E7066AF3EAE3D12121BC3E577
:100C75003C940AE53B9400404BE47B18FAF9F89064
:100C8500000E1202671201AEC006C007AE3BAF3CB4
:100C9500AB07AA06E4F9F8D007D0061201AEAB07F8
:100CA500AA06AFF9EFFEADE97C00E42DFFEC3ECFDF
:100CB5002BCF3AAD07FCAF03AE02121178D2D84361
:0F0CC500DA01800612124453DAFE7F02227F0307
:010CD40022FD
:0C11DF00121212EF4E7002FF227F01225C
:10075000E4F5809000ACE0FFB40800505F900764BF
:10076000F828287302077C02078202078802078E96
:1007700002079402079E0207A80207B2C2A3C2A200
:100780008016C2A3C2A2801AC2A3C2A2801EC2A3A4
:10079000C2A28022C2A3D2A2C2A1C2A08020C2A3B0
:1007A000D2A2C2A1D2A08016C2A3D2A2D2A1C2A0BC
:1007B000800CC2A3D2A2D2A1D2A08002D2A3C3EF46
:1007C0006480948850299000ACE0FF3395E0FE747B
:1007D000A32FF58274003EF583E0FF3395E0FE74AD
:1007E000122FF58274003EF583E493F580801E900D
:1007F00000ACE0FFB408133395E0FE74A32FF5823C
:1008000074003EF583E0F5808003E4F5809000A25B
:10081000E0FF9000ACE004FEF0D3EF6480F8EE64FB
:1008200080984014E0D36480948850047408F022C7
:090830009000A1E09000ACF02260
:10112D00E4F5937594FF5395F043960F90002A7450
:0B113D00FFF0A37407F0A37450F02231
:091209009000A1EFF0A3EDF0222A
:1010D3009000A3EFF0A3EDF0A3EBF0A3E53EF0A3A4
:1010E300E53FF0A3E540F0A3E541F0A3E542F0229C
:061238009000ABEFF02274
:1005A600011E004100B0004100AD054100AE83418F
:0305B60000AF8310
:100ECF002092069000AEE014F09000ADE014F070A8
:100EDF00347405F0A3E0FFC39480500EA3E0948018
:100EEF004018A37401F0F51E80109000AFE0C3947A
:100EFF00805007A37402F0751E019000AFEFF090C1
:050F0F0000AE7483F048
:010F140022BA
:0211C3001545D0
:0911C500A845A61EE4F51EE6FF94
:0311CE00054522B2
:1010F30090003674FFF0A37411F0A374C3F0900052
:0D1103003374FFF0A3740EF0A374CFF0223C
:070003009000B0E0FFE4F003
:01000A0022D3
:1005B9004100000A4100290A41006D0A040E0000A9
:1005C90000000114004600670000FFFF8FFFC10D06
:1005D900C105C108C101C10E60240005FF0022FF49
:1005E9000022FF0022FF0022FF0022FF0022FF005D
:1005F90022FF0022FF0022FF0022FF0022FF00222B
:100609006036002AFF0022FF0022FF0026FF002299
:10061900FF0026FF0022FF0026FF0022FF0022FF25
:100629000022FF0026FF0026FF0026FF0026FF000C
:0A06390022FF0022FF0022FF002232
:0100220022BB
:030026007F002236
:100E4200438E805389F07BE07A2879017800900004
:100E52000E120267120F15EFF404F58A7BE07A286E
:100E62007901780090000E120267120F15C3E49FF9
:100E7200FFE49EFE74019DFDE49CFC78081202537F
:070E82008F8CD28CD2A92253
:03000B00020D9F44
:040D9F00C0E0C0D020
:100DA300D5080A75084C300D020514D20DA2037242
:100DB300045036150AE50A7030850C0AD207300A4A
:100DC30017E50D6007150D438F01801D538FFEC27C
:100DD300B5D51615C20A8011050BE50BD394064051
:090DE30008C203E5136002D20608
:050DEC00D0D0D0E03280
:100D4C00300E47C20E90000E12026778101202533A
:100D5C008E1C8F1D900003E0FEA3E0FFE4FCFD7BE6
:100D6C0019FAF9F8120123C006C007AE1CAF1DAB6F
:100D7C0007AA06E4F9F8D007D006120F157803126B
:100D8C000253900065EEF0A3EFF0900065E0FEA337
:020D9C00E0FF76
:010D9E002232
:09121200900067E0FEA3E0FF225A
:09121B00900067EEF0A3EFF02251
:1011780090006BEEF0A3EFF0900069ECF0A3EDF0B7
:011188002244
:03124400C2B4220F
:03003B000208F3C5
:1008F300C0E0C083C082C0D075D000C004C005C0B2
:0309030006C00724
:1009060030DF04C2DF807D30DA04C2DA807630D987
:100916003DC2D9AFFBEFFEADEB7C00E42DFFEC3E14
:1009260020000E900001F0A3EFF075DB11D20080DD
:1009360053FE900001E0FCA3E0FDC3EF9DFFEE9C9B
:10094600A3F0A3EFF075DB00C200D20E803630D8DC
:1009560033C2D8900067E07002A3E06022B2B49080
:100966000069E0FEA3E0F5EAEEF5FAA3E0FEA3E0F7
:10097600FF90006AE02FF0900069E03EF08005C22B
:04098600B453DAFE8E
:10098A00D007D006D005D004D0D0D082D083D0E012
:01099A00322A
:06123E00120E42D2AF22A5
:100B55003004047F0180027F00200A047E018002A8
:100B65007E00EE5F6074E515C39509506830023666
:100B7500750D01E515131313541FAB17AA18A91901
:100B8500F58275830012003EFFE515540704FEEF5C
:100B9500A806088002C333D8FC30D7057516038034
:100BA5002F751601802AAB17AA18A91975F002E549
:100BB50015A4F58285F08312003EF50DE51575F057
:100BC50002A429F9EA35F0FA90000112003EF51663
:0A0BD5000515D20A22C204438F1056
:010BDF0022F3
:10066300900000E014F0701F740AF0D20590002986
:10067300E014F07012740AF0D20890006DE014F0E8
:100683007005740AF0D20190002AA3E0FAA3E0F9FE
:1006930012028F90002DA3E0FAA3E0F912028F90CB
:1006A3000039A3E0FAA3E0F912028F900045A3E01A
:1006B300FAA3E0F912028F900054A3E0FAA3E0F941
:1006C30012028F90005DA3E0FAA3E0F912028F906B
:1006D300004BA3E0FAA3E0F912028FEF600C900045
:1006E3001DA3E0FAA3E0F912028F90004EA3E0FAF3
:1006F300A3E0F912028FEF600E900020A3E0FAA3AB
:10070300E0F912028FD20BE512D394004016D512F2
:100713003030090C900023A3E0FAA3E0F912028F12
:10072300D20C801D900051A3E0FAA3E0F912028FCE
:10073300EF600E900023A3E0FAA3E0F912028FD238
:0D0743000C900005A3E0FAA3E0F902028F7C
:100A360090003FA3E0FAA3E0F912028F900042A3D0
:100A4600E0FAA3E0F912028F900033A3E0FAA3E0E4
:100A5600F912028F900008A3E0FAA3E0F912028FC0
:100A6600900030A3E0FAA3E0F912028FEF600C9039
:100A76000011A3E0FAA3E0F912028F900036A3E07A
:100A8600FAA3E0F912028FEF600C900017A3E0FAC8
:100A9600A3E0F912028F900048A3E0FAA3E0F9124E
:100AA600028FEF600C90001AA3E0FAA3E0F912029D
:100AB6008F30060EC206900026A3E0FAA3E0F912D4
:030AC600028F227A
:100F590090000BA3E0FAA3E0F912028F90003CA3E2
:100F6900E0FAA3E0F912028FEF600C900014A3E0FD
:100F7900FAA3E0F912028F900057A3E0FAA3E0F96F
:0F0F890012028F90005AA3E0FAA3E0F902028F40
:10103800AF11AE10AD0FAC0E9000601202779000A9
:1010480064E514F0E4F511F510F50FF50EF51490BC
:0B105800000EA3E0FAA3E0F902028FF3
:100F9800300705C207120B55300D05C20D12066346
:100FA800300505C205120A36300805C208120F5965
:100FB800300105C201121038E5112401F511E4359C
:0E0FC80010F510E4350FF50FE4350EF50E228E
:100BE0008B3B8A3C893DEFB40C005070900BF3F8BE
:100BF000282873020C17020C1C020C21020C26027E
:100C00000C2B020C30020C35020C3A020C3F020C89
:100C100044020C49020C4E9000058035900008807B
:100C20003090000B802B90000E80269000118021C8
:100C3000900017801C900014801790001A8012906A
:100C4000001D800D900020800890002380039000FC
:0D0C500026E53BF0A3E53CF0A3E53DF022D6
:07122B007B017A00796022CB
:07064300011F004100B1009E
:0D002E0020A409751F019000B17401F0229B
:0211D1001545C2
:0911D300A845A61FE4F51FE6FF84
:0311DC00054522A4
:1011100090003C74FFF0A37411F0A374D1F0900020
:0D1120003974FFF0A37400F0A3742EF022C8
:0211890015450A
:0A118B009000B1E0A845F6FFE4F083
:03119500054522EB
:10064A0055008C00000000000000000000000000BF
:08065A00000001000000000097
:0300230002044193
:10044100C0E0C0F0C083C082C0D075D000C000C081
:1004510001C002C003C004C005C006C00730993BFB
:10046100C299900091E0FEA3E0FFC3900090E09F4D
:1004710090008FE09E501F90008CE0FBA3E0FAA358
:10048100E0F9A3E475F0011200E285F082F5831230
:10049100003EF5998005900093E4F0209803020551
:1004A10056C298300B09C20B900099E4F0A3F0906A
:1004B1000097E0FEA3E0FFA3E0FCA3E0FDC39FECF7
:1004C1009E5077900094E0FBA3E0FAA3E0F98D82BF
:1004D1008C83E59912006B90009FE0FEA3E0FFC3BF
:1004E100ED9FEC9E5046900097E0FCA3E0FDEF9D50
:1004F100EE9C503890009CE0FBA3E0FAA3E0F99059
:100501000099E0FEA3E0FFF5828E8312003EFD908C
:100511000094E0FBA3E0FAA3E0F98F828E8312003E
:100521003E6D600890009974FFF0A3F090009AE08E
:1005310004F07006900099E004F0900097E0FEA3AB
:10054100E0FFC390009AE09F900099E09E400690E2
:10055100009B7401F0D007D006D005D004D003D0A1
:1005610002D001D000D0D0D082D083D0F0D0E03200
:021198001545FB
:0A119A0090009BE0A845F6FFE4F08A
:0311A400054522DC
:100CD5008F3E8E3D8D3C8C3B759850438E40538E98
:100CE500FE53890FE47B04FAF9F890000E120267AF
:100CF5001201AEAB3EAA3DA93CA83B1201AEEFF4F2
:100D050004F58BE47B04FAF9F890000E12026712E1
:100D150001AEAB3EAA3DA93CA83B1201AEC3E49F80
:100D2500FFE49EFE74019DFDE49CFC7808120240E0
:100D35008F8DC2ABD28ED2AC90004E74FFF0A374EF
:070D450011F0A37498F022E5
:10100700900094EBF0A3EAF0A3E9F0A3ECF0A3EDD2
:10101700F090009FE543F0A3E544F090009CE54085
:10102700F0A3E541F0A3E542F0D20BE490009BF07A
:011037002296
:10108B00900093E0701F90008CEBF0A3EAF0A3E9C3
:10109B00F0E4A3F0A3F0A3ECF0A3EDF0A37401F044
:0810AB00D2997F02227F03228B
:0B11EB00900093E07002FF227F0122C1
:03000000020AC928
:0C0AC900787FE4F6D8FD758145020B1023
:10003E00BB010CE58229F582E5833AF583E0225077
:10004E0006E92582F8E622BBFE06E92582F8E222C1
:0D005E00E58229F582E5833AF583E49322DB
:10006B00F8BB010DE58229F582E5833AF583E8F0CB
:10007B00225006E92582C8F622BBFE05E92582C877
:02008B00F2225F
:10008D00BC000BBE0029EF8DF084FFADF022E4CC57
:10009D00F875F008EF2FFFEE33FEEC33FCEE9DEC20
:1000AD00984005FCEE9DFE0FD5F0E9E4CEFD22ED66
:1000BD00F8F5F0EE8420D21CFEADF075F008EF2FB0
:1000CD00FFED33FD4007985006D5F0F222C398FDA1
:0500DD000FD5F0EA223E
:1000E200A3F8E0C5F025F0F0E582158270021583D1
:0600F200E0C838F0E8222E
:1000F800BB010A89828A83E0F5F0A3E022500687D3
:10010800F009E71922BBFE07E3F5F009E319228994
:0B011800828A83E493F5F074019322C7
:10012300E88FF0A4CC8BF0A42CFCE98EF0A42CFC7B
:100133008AF0EDA42CFCEA8EF0A4CDA8F08BF0A4F9
:100143002DCC3825F0FDE98FF0A42CCD35F0FCEB58
:100153008EF0A4FEA9F0EB8FF0A4CFC5F02ECD391D
:0F016300FEE43CFCEAA42DCE35F0FDE43CFC228A
:1001720075F008758200EF2FFFEE33FECD33CDCC44
:1001820033CCC58233C5829BED9AEC99E5829840C7
:100192000CF582EE9BFEED9AFDEC99FC0FD5F0D6A4
:1001A200E4CEFBE4CDFAE4CCF9A88222B800C1B9CE
:1001B2000059BA002DEC8BF084CFCECDFCE5F0CB0C
:1001C200F97818EF2FFFEE33FEED33FDEC33FCEB45
:1001D20033FB10D703994004EB99FB0FD8E5E4F900
:1001E200FA227818EF2FFFEE33FEED33FDEC33FCED
:1001F200C933C910D7059BE99A4007EC9BFCE99AE1
:10020200F90FD8E0E4C9FAE4CCFB2275F010EF2F25
:10021200FFEE33FEED33FDCC33CCC833C810D70725
:100222009BEC9AE899400AED9BFDEC9AFCE899F860
:0E0232000FD5F0DAE4CDFBE4CCFAE4C8F922F3
:100F1500C2D5E830E70FB2D5E4C39BFBE49AFAE407
:100F250099F9E498F8EC30E717B2D5120F4B120196
:100F3500AEE4C39BFBE49AFAE499F9E498F88003DC
:100F45001201AE30D50DE4C39FFFE49EFEE49DFD86
:040F5500E49CFC22FA
:10024000E8600FECC313FCED13FDEE13FEEF13FF9C
:03025000D8F122C0
:10025300E86010ECA2E713FCED13FDEE13FEEF13C1
:04026300FFD8F022AE
:10026700E493FC740193FD740293FE740393FF22DD
:0C027700ECF0A3EDF0A3EEF0A3EFF022FA
:0C028300A42582F582E5F03583F5832286
:06028F008A838982E473FA
:100AD50002099BE493A3F8E493A34003F68001F293
:100AE50008DFF48029E493A3F85407240CC8C33322
:100AF500C4540F4420C8834004F456800146F6DFF1
:100B0500E4800B0102040810204080900571E47E0A
:100B1500019360BCA3FF543F30E509541FFEE493E5
:100B2500A360010ECF54C025E060A840B8E493A3AC
:100B3500FAE493A3F8E493A3C8C582C8CAC583CAD7
:100B4500F0A3C8C582C8CAC583CADFE9DEE780BE8F
:010662000097
:00000001FF
